:020000040800F2
:1000000020050020C500000801100008830F00082B
:1000100000000000000000000000000000000000E0
:1000200000000000000000000000000005100008B3
:100030000000000000000000031000080710000886
:10004000D7000008D7000008D7000008D700000834
:10005000D7000008D7000008D7000008D700000824
:1000600000000000D7000008F9010008D7000008D0
:10007000D7000008D7000008D7000008D700000804
:10008000D70000080000000000000000D7000008B2
:1000900000000000D7000008D7000008D7000008C3
:1000A00000000000D70000080000000095130008C1
:1000B0000348854600F08EF80048004737140008D2
:1000C000200500200448804704480047FEE7FEE77B
:1000D000FEE7FEE7FEE7FEE761100008B10000085A
:1000E00030B50B46014600202022012409E00D46D0
:1000F000D5409D4205D31D469540491B2546954058
:1001000040191546521E002DF1DC30BDF0B51FB46C
:100110000646002082B005464024019100901BE075
:10012000019922460F46304600F020F8049A059BBC
:10013000801A994110D310461946224600F039F82A
:10014000361A8F410197224601200021009F00F0BE
:1001500030F838184D4100902046641E0028DFDC3E
:10016000019B00982946324607B0F0BD10B5202A01
:1001700004DB0846203AD040002110BD0B46D34096
:10018000D0402024A21A91400843194610BDD2B293
:1001900001E00270401C491EFBD270470022F6E7C6
:1001A00010B513460A4604461946FFF7F0FF2046ED
:1001B00010BD10B5202A04DB0146203A91400020F2
:1001C00010BD914020239C1A0346E3401943904000
:1001D00010BD0000064C0125064E05E0E36807CC83
:1001E0002B430C3C98471034B442F7D3FFF764FF1D
:1001F000641400088414000810B5034800F05FF888
:10020000024800F05CF810BDD800002094000020E7
:1002100010B504460068054940181421FFF760FF37
:10022000800020640248E06310BD0000F8FFFDBFBD
:1002300000000240704730B5014620314B78002263
:10024000022B04D0042383630A70012030BD0368AD
:100250001C680E25AC431C6003681C6864086400BD
:100260001C600123056C1C46C06BAC4044604B70A5
:100270000A70002030BD70B50024014620314A7854
:10028000022A03D004218163012416E00268136866
:100290000E25AB431360026813685B085B001360B4
:1002A0000122056C1346AB40C56B6B604A7000229F
:1002B0000A70416B002900D08847204670BDF0B419
:1002C000C16B0D6801680C680422066C1346B340CC
:1002D0002B420DD063070BD50B689B0602D40B682D
:1002E00093430B60016C8A40C16B4A60C16A19E09C
:1002F0000227B74002462F4001232032002F15D09D
:10030000A70713D50C68A40604D40C680A25AC43CF
:100310000C605370036C02219940C36B596000213B
:100320001170816A002916D0F0BC08470827B74031
:100330002F4210D024070ED50C680E25AC430C605C
:10034000046C1946A140C46B616083635370002143
:100350001170016BE6E7F0BC7047000070B5040057
:1003600021D00221204620300546417022681168C4
:100370000E48A3680140606826691843E368334368
:10038000184363691843A3691843E3691843084392
:1003900010602046FFF73CFF0021A1630120687038
:1003A0002970084670BD012070BD00000FC0FFFF1E
:1003B000FCB5002301249CE027462A469F403A4092
:1003C00073D04D68012D05D0022D03D0112D01D021
:1003D000122D16D185680326AC465D00AE46AE40B0
:1003E0006546B543AC46CE687546AE4065462E437D
:1003F000866046680D79BE43ED06ED0F9D4035439E
:100400004560C6685F000325BD40AE46AE43354635
:100410008E68BE402E43C6604E68022E01D0122E5A
:1004200014D1DE08B60036180196366A5D07B44668
:10043000EE0E0F25B54000966646AE43B4460D69F4
:10044000009EB54066462E43019D2E6206687546A5
:10045000AE430D79AD07AD0FBD40354305604D6826
:10046000ED0045D5264DAE692643AE61AD699E08C7
:10047000ED07ED0F0095234DB6007519AC46AD683C
:100480009E07360F0F27B740BD430927FF06B84226
:1004900001D100270BE01C4FB84201D1012706E033
:1004A0001A4FB84202D1022701E021E00527B740E8
:1004B0002F436546AF60164E35684F689543FF037E
:1004C00000D51543356075684F689543BF0300D567
:1004D00015437560B5684F689543FF0200D5154315
:1004E000B560F5684F689543BF0200D51543F560C8
:1004F0005B1C0A681546DA4000D05DE7FCBD0000D1
:1005000000100240000001400004004800080048BC
:10051000000401400148806870470000000000208E
:1005200002488168027889188160704700000020C5
:1005300010B506480168102211430160002000F048
:1005400007F800F027F8002010BD0000002002404E
:1005500070B504460D4D7D202978C000FFF7C0FD21
:1005600001460B480068FFF7BBFD00F043FB002885
:1005700009D1042C07D200222146401E00F02AF89F
:1005800000206C6070BD012070BD000000000020E4
:100590000C00002008B508488169012211438161DF
:1005A000816911400091C26901040A43C261C069B6
:1005B0000840009008BD000000100240002805DB44
:1005C000C106C90E0120884001490860704700003B
:1005D00000E100E010B500F0FDFE10BDF8B50546E5
:1005E0000068354CC00352D5E0690026C00007D42E
:1005F000E16920040143E161E169014001260091C4
:100600002E480168C90510D40168821511430160A4
:10061000FFF780FF074604E0FFF77CFFC01B64285C
:1006200024D826480068C005F6D5206A03273F0273
:10063000384020D06968394081421CD0206A226A43
:10064000B843012109040A432262226A8A432262D2
:100650002062C0070FD0FFF75DFF009008E0FFF7B2
:1006600059FF0099411A1648814201D90320F8BD6B
:10067000206A8007F3D5206A6968B843084320627E
:10068000002E04D0E169012000078143E161287850
:10069000C00705D0206BA96880088000084320634C
:1006A0002878800605D5206B10218843E968084327
:1006B00020630020F8BD00000010024000700040E0
:1006C00088130000F8B50F46060059D03A4D286847
:1006D000C007C00FB84209D228684008400038431C
:1006E00028602868C007C00FB84249D13068334C31
:1006F00081070CD5400704D560680721090208432B
:1007000060606068F0218843B168084360603078B9
:10071000C00726D0706801280ED0216802280ED0AC
:10072000890700292CDA6168890889000143616022
:10073000FFF7F0FE00900DE021688903F1E78901E1
:10074000EFE7FFF7E7FE0099411A1D48814201D902
:100750000320F8BD60680C21084071688900884258
:10076000EFD12868C007C00FB8420BD928684008ED
:100770004000384328602868C007C00FB84201D045
:100780000120F8BD3078400706D5606807210902CE
:100790008843F1680843606000F028F86168094AFE
:1007A0000906090F515CC840074908600020FFF79F
:1007B000CFFE0020F8BD00000020024000100240E3
:1007C000881300004C1400080C0000200448054960
:1007D00000684968044A4905490F515CC8407047A0
:1007E0000C000020001002405C14000810B514A397
:1007F0000FCB88B06C460FC415A30FCB0FC4184A9B
:1008000051680C200B4603401648042B16D0082BC9
:1008100014D18B021B0F6C46E45CD26A04AB120746
:10082000120F9A5CC90305D500231946FFF76EFC29
:10083000214601E020460C4900F0B4FD08B010BD8F
:1008400002030405060708090A0B0C0D0E0F101011
:100850000102030405060708090A0B0C0D0E0F1010
:100860000010024000127A0000093D00FEB50400AD
:1008700070D02078DC4DC0074AD068680007800F30
:10088000012807D068680007800F022809D168682E
:10089000C00306D5286880033AD560680028E7D0F1
:1008A00036E06168012914D001208004002901D0BC
:1008B000052914D02A68012109048A432A6029687D
:1008C000814329606068002816D0FFF723FE0646A2
:1008D0000EE028680121090408432860F2E729682E
:1008E00001432960F5E7FFF715FE801B64286ED8E9
:1008F00028688003F7D50BE0FFF70CFE064604E0FE
:10090000FFF708FE801B6428F1D828688003F7D41D
:1009100020780126800700283CDA68680007800FED
:1009200007D068680007800F022809D16868C003F3
:1009300006D42868800716D5E06801280AD112E09D
:10094000E0680028286816D030432860FFF7E2FDF1
:10095000074605E043E1FFF7DDFDC01B0228C6D8CE
:1009600028688007F7D52868F82188432169C900DD
:10097000084328600EE0400840002860FFF7CAFDE9
:10098000074604E0FFF7C6FDC01B0228AFD8286861
:100990008007F7D42078000722D5E0690028686A2C
:1009A0000ED030436862FFF7B5FD074604E0FFF75D
:1009B000B1FDC01B02289AD8686A8007F7D50FE0FE
:1009C000400840006862FFF7A5FD074605E09DE08E
:1009D000FFF7A0FDC01B022889D8686A8007F7D4FA
:1009E000207804274007002860DA00200190E86999
:1009F000C00008D4E969B8060143E961E96901402A
:100A000001200091019079480168C90511D401685D
:100A1000821511430160FFF77DFD009005E0FFF7AF
:100A200079FD0099401A642870D870480068C005A4
:100A3000F5D5A06801280AD0002801D0052810D0DB
:100A4000286A400840002862286AB84301E0286A02
:100A500030432862A068002812D0FFF75BFD0090A9
:100A60000AE0286A38432862F1E7FFF753FD00994E
:100A7000411A5F48814249D8286A8007F5D50DE0C0
:100A8000FFF748FD009006E0FFF744FD0099411A8A
:100A9000574881423AD8286A8007F5D4019800283F
:100AA00004D0E969012000078143E9612078C0068C
:100AB00035D5606901280CD0401D686B23D03843C0
:100AC0006863686B400840006863FFF723FD0646D3
:100AD00022E0686B38436863686B30436863FFF7F4
:100AE00019FD064604E0FFF715FD801B02285BD8C0
:100AF000686B8007F7D5686BF8218843A169C90046
:100B0000084368630BE0B8436863F4E74CE0FFF721
:100B100001FD801B022847D8686B8007F7D4206A44
:100B200000285ED069680907890F022942D0012692
:100B300036060228286805D0B0432860FFF7EAFC93
:100B4000044633E0B0432860FFF7E4FC074604E0C6
:100B5000FFF7E0FCC01B022826D828688001F7D4E4
:100B6000E86AE16A000900010843E862616AA06A74
:100B7000084369683D22120491430843686028686D
:100B800030432860FFF7C6FC044604E0FFF7C2FCD0
:100B9000001B022808D828688001F7D521E0FFF75C
:100BA000B9FC001B022801D90320FEBD2868800182
:100BB000F5D416E00128F8D06868E96A0122120429
:100BC000636A02409A420AD10907E26A090F914218
:100BD00005D10F2189040840A16A884201D0012073
:100BE000FEBD0020FEBD000000100240007000406D
:100BF00088130000094910B5401E884201D9012020
:100C000010BD074C60610321081F00F0E3FB0020CA
:100C1000A06107202061002010BD0000FFFFFF0041
:100C200000E000E07047704770470000F8B50268C8
:100C30000446D06911689668804B05461D40202304
:100C4000002D6CD0F7077E4DFF0FBC460D402F43A3
:100C500079D02546C7078035002F06D0CF0504D5AB
:100C6000012717622A683A432A60820708D5F207EB
:100C700006D0276802223A622A6804273A432A608B
:100C8000420708D5F20706D02668042232622A6895
:100C9000022632432A6002070AD50A461A406646EF
:100CA000324305D02668082232622E6816432E6031
:100CB000020508D54A0106D501222668D202326211
:100CC0002A681A432A602A68002A30D0800606D58E
:100CD000880604D5616E002901D02046884728681F
:100CE00021688968490602D42821084225D0204677
:100CF00000F058FA20688168490619D582684021B9
:100D00008A438260206F002812D04E494163206FD1
:100D1000FFF7B1FA00280AD0206F416B06E0850684
:100D200011D58D060FD5616E76E020468847F8BD57
:100D30002046FFF779FFF8BD05E02046FFF774FF76
:100D400000202860F7E7256E012D55D1C50653D543
:100D5000CD0651D5102616622068816825464906C1
:100D60004035002929DA226F116849680904090C05
:100D7000E1D02F8B8F42DED969839169202917D06A
:100D80000168320191430160206881684908490087
:100D9000816020688168402291438160E367002080
:100DA000206620680168B1430160206FFFF743FAB5
:100DB000288B698B401A81B21AE0298B6A8B891AB9
:100DC0006A8B89B2002AB6D00029B4D00268FF2508
:100DD0002135AA430260206882685208520082606E
:100DE000E36700202066606620680268B243026004
:100DF0002046FFF717FF9EE7C50208D5750206D506
:100E00000120000510622046FFF70DFF93E705065D
:100E100005D50D0603D5A16E002986D18BE74006C6
:100E200089D5480687D52046146840218C43146034
:100E300083670021816600F0A3F87CE70F080000BB
:100E4000200100049111000810B5040003D0A06F28
:100E5000002802D007E0012010BD002174200155B8
:100E6000204600F027F82420A06720680168490880
:100E700049000160204600F0AFF90128ECD0606A1B
:100E8000002802D0204600F0ECF8206841680922D2
:100E9000D20291434160206881682A229143816097
:100EA00020680168012211430160204600F03EF9EC
:100EB00010BD0000F0B587B0064614216846FFF764
:100EC0006DF92B493068884250D12A488269012146
:100ED00089030A43826182690A4005924269C90016
:100EE0000A43426140690024084005900320400203
:100EF000009002200190032003900120049009201B
:100F000002946946C006FFF753FA1B481B4D802721
:100F100011C52C60AC60EC602C616F606C6117488F
:100F2000083DFFF71BFA002801D0FFF783F935676A
:100F30006E62124D10484435143828601020291D67
:100F400091C12C616C61AC612846EC61FFF706FA37
:100F5000002801D0FFF76EF9F566002211461B202C
:100F60006E62FFF737FB1B20FFF728FB07B0F0BDD1
:100F70000038014000100240300002409400002080
:100F80007047FEE708B508484169012211434161F5
:100F9000406910400022009011460A20FFF71AFB1A
:100FA0000A20FFF70BFB08BD0010024008B50548FA
:100FB0004269012149040A434261406908400090A6
:100FC00008BD00000010024010B50C480A4901603D
:100FD000E1214902416000218160C16001618161BC
:100FE000C1610C22016242614162FFF72DFF0028BE
:100FF00001D0FFF71FF910BD00380140100000209C
:1010000070477047704710B5FFF78AFA10BD30B5CA
:1010100095B030216846FFF7C1F800240F940220F4
:101020000D940E94009012940125139410200C94AA
:10103000039504901094119408946846FFF716FCE9
:1010400007200C900D940E9400210F940CA8FFF72C
:1010500039FB10A810951294FFF7C0FA15B030BDF7
:10106000704710B5818CC90707D001684A68012311
:101070005B049A43836A1A434A60818C890707D5C7
:1010800001684A6801231B049A43C36A1A434A60F1
:10109000818C490707D501684A6801239B049A435C
:1010A000036B1A434A60818C090707D501684A68B7
:1010B0000123DB039A43436B1A434A60818CC906C0
:1010C00007D50268916801231B039943836B194379
:1010D0009160818C890607D501688A6801235B03CA
:1010E0009A43C36B1A438A60818C490612D5036800
:1010F0005A6801210905046C8A4322435A60026C34
:101100008A4207D10268516803235B059943436C07
:1011100019435160818C090607D501684A6801238B
:10112000DB04806C9A4302434A6010BDF8B5044664
:10113000002680300660FFF7EDF90546206800685C
:10114000124F000709D501212B46002249052046F0
:10115000009700F0CFF800280DD120680068400704
:101160000BD501212B46002289052046009700F06F
:10117000C1F8002801D00320F8BD2020A067E06757
:101180002666603426750020F8BD0000FFFFFF01D1
:1011900010B5406A0022014640314A834A82FFF777
:1011A00043FD10BD01680A68FF2321339A430A609A
:1011B00001688A68520852008A60016E012904D1D0
:1011C00001680A6810239A430A602021C167002140
:1011D000016641667047000070B504468068216969
:1011E000E2690843616900251143084321680A68E0
:1011F0003C4B1A4002430A602168486803221203EC
:101200009043E26810434860A169206A084321685E
:101210008A680B231B029A4302438A603248006BA0
:101220008007800F16D0012818D0022818D0032874
:1012300012D010210120E369C0032C4A2C4E8342B6
:101240002BD100290ED002290FD004290FD0082954
:101250003FD110E00021EDE70221EBE70421E9E7AF
:101260000821E7E7FFF7B2FA03E0104603E0FFF7D3
:10127000BDFA002831D0616840004A088018FEF7A6
:101280002FFF80B201461039B14222D81849491CBB
:1012900001400007400F08431DE0002906D0022945
:1012A00007D0042907D0082913D108E0FFF78EFAE8
:1012B00003E0104603E0FFF799FA00280DD06168BB
:1012C0004A081018FEF70CFF80B201461039B142EF
:1012D00001D9012501E02168C86000206066A06690
:1012E000284670BDF369FFFF0010024000127A002B
:1012F000EFFF0000FFB581B005460F46044660359C
:101300000A9E39E0701C37D0FFF704F90499401A9F
:10131000B04222D8002E20D02068016849072BD582
:10132000C069C043000527D401202168C0020862BB
:1013300020680168FF22A132914301602068816822
:101340004908490081602020A067E0678034206060
:1013500000202875032005B0F0BD20680168FF2239
:10136000A132914301602068816849084900816089
:101370002020A067E067EBE72068C1693846884312
:1013800005D0002103988142BCD00020E3E7012171
:10139000F8E7000010B50248FFF748FC10BD000058
:1013A00010000020F8B5040C8BB2264682B25E43D2
:1013B0000D0C1046370C5843360480190021794132
:1013C00016466E43370C36048019794126466E4323
:1013D0008919F8BD8307FF22DB0E9A408907090EA1
:1013E0009940002808DB830809489B001B181868EF
:1013F00090430843186070470007000F08388308BF
:1014000004489B001B18D86990430843D861704773
:1014100000E400E000ED00E002E008C8121F08C18F
:10142000002AFAD170477047002001E001C1121F65
:10143000002AFBD17047FFF77BF8FFF7E8FDFFF7C5
:10144000B5FDFFF79FFDFFF7BFFDFEE700000000C1
:101450000000000001020304060708090000000064
:1014600001020304841400080000002010000000A2
:101470001814000894140008100000201005000043
:101480002814000801000000040000000000000013
:0414900000127A00CC
:04000005080000B13E
:00000001FF
