:020000040800F2
:1000000020350120490200084F08000807080008B1
:100010004D08000835050008E90D00080000000043
:100020000000000000000000000000009101000836
:100030001907000800000000E5010008DD0A0008BB
:1000400063020008630200086302000863020008FC
:1000500063020008630200086302000863020008EC
:1000600063020008630200086302000863020008DC
:100070006302000863020008350600088B060008CA
:1000800063020008630200086302000863020008BC
:1000900063020008630200086302000863020008AC
:1000A000630200086302000863020008630200089C
:1000B000630200086302000863020008630200088C
:1000C000630200086302000863020008630200087C
:1000D00063020008D90B00086302000863020008ED
:1000E000630200086302000863020008630200085C
:1000F000630200086302000863020008630200084C
:10010000630200086302000863020008630200083B
:10011000630200086302000863020008630200082B
:10012000630200086302000863020008630200081B
:10013000630200086302000863020008630200080B
:1001400000000000000000000000000000000000AF
:1001500063020008630200086302000863020008EB
:1001600063020008630200086302000863020008DB
:10017000630200086302000863020008DFF80CD085
:1001800000F0FAF80048004711110008203501205E
:100190002A4B19680868B0E8F04F80F30988BFF36C
:1001A0006F8F4FF0000080F311887047000000004F
:1001B00006480068006880F3088862B661B6BFF33D
:1001C0004F8FBFF36F8F00DF00BF00BF08ED00E06F
:1001D000DFF80C00016841F470010160704700BF56
:1001E00088ED00E0EFF30980BFF36F8F134B1A68BF
:1001F0001EF0100F08BF20ED108A20E9F04F1060AC
:1002000008B44FF0500080F31188BFF34F8FBFF355
:100210006F8F01F0E5FE4FF0000080F3118808BCFD
:1002200019680868B0E8F04F1EF0100F08BFB0EC76
:10023000108A80F30988BFF36F8F70477400002025
:10024000EFF30580704700000648804706480047E6
:10025000FEE7FEE7FEE7FEE7FEE7FEE7FEE7FEE776
:10026000FEE7FEE7090B00087D0100082DE9F05FBD
:100270000546002092469B46884606468146402415
:100280001BE0284641464746224600F065F85346A3
:100290005A46C01A914110D311461846224600F022
:1002A0004CF82D1A67EB01084F4622460120002129
:1002B00000F043F817EB00094E41201EA4F10104A1
:1002C000DFDC484631462A464346BDE8F09F40EA17
:1002D00001039B0703D009E008C9121F08C0042AC4
:1002E000FAD203E011F8013B00F8013B521EF9D2AB
:1002F0007047D2B201E000F8012B491EFBD27047D3
:100300000022F6E710B513460A4604461946FFF7E1
:10031000F0FF204610BD30B505462A460B4612F8C0
:10032000010B13F8014B08B1A042F8D01CB1002812
:1003300002D06D1CF1E7284630BD202A04DB203AAC
:1003400000FA02F1002070479140C2F1200320FA28
:1003500003F3194390407047202A04DB203A21FA26
:1003600002F00021704721FA02F3D040C2F12002CE
:100370009140084319467047064C074D06E0E06877
:1003800040F0010394E8070098471034AC42F6D3DC
:10039000FFF7F8FE1C2A00083C2A000838B504467E
:1003A0000C48012150F8240000F08EFA684600F055
:1003B00022FA084869461E3830F81400ADF80000EB
:1003C00028208DF803000348083850F8240000F076
:1003D000BDF938BD4800002010B5164C2078012822
:1003E00009D1002000F028F8012809D0012000F0F0
:1003F00023F8012804D0012000F01EF890B117E086
:10040000002020700A2001F003FD002000F014F805
:10041000012805D0012000F00FF8012801D007E0E5
:10042000002010BD002000F007F808B9012020705E
:10043000042010BD280000200449044A163231F877
:10044000101052F8200000F0CFB900002A00002060
:1004500010B500F063F9012000F018F8022000F058
:1004600015F8032000F012F8012000F031F8022006
:1004700000F02EF8032000F02BF80020FFF78EFF8D
:10048000BDE810400120FFF789BF000038B50446E1
:100490000E48012150F8240000F016FA684600F0DA
:1004A000AAF90A486946283830F81400ADF8000067
:1004B00010208DF8030002208DF802000348103848
:1004C00050F8240000F042F938BD00006000002020
:1004D000032809D8054931F81010002904D0034A2F
:1004E000183252F8200001617047000038000020E7
:1004F000032809D8054931F81010002904D0034A0F
:10050000183252F820004161704700003800002086
:1005100003280BD8064931F81010002906D0044AE8
:10052000183252F82000C2684A40C260704700008A
:1005300038000020FEE700001CB58020ADF8040064
:100540001F4D204CFFF748FFD8B9A86848B10023D9
:10055000012201A901F010FF012802D01AA000F029
:1005600045FC1F48007800901E4803781E4802781A
:100570001E4801781EA000F039FC214921A000F09E
:1005800035FC20780028DDD11D4922A000F02EFC8A
:100590000120207023A11A48FFF7BDFE10B10120F1
:1005A000FFF7A6FF21A11648FFF7B5FE10B1012005
:1005B000FFF78EFF64211248FFF7A2FEC2E700009A
:1005C00008000020000000205175657565207365E6
:1005D0006E64206661696C202D5F2D21210A000068
:1005E0000400002002000020010000200300002081
:1005F0002025642025642025642025640000000057
:100600004C0100205278427566666572313A257356
:100610000A0000005278427566666572313A2573A9
:10062000000000004C45445F4F4E00004C45445FC5
:100630004F46460070B54FF48054204600F05CF8F9
:10064000012802D1204600F04BF84FF480442046A8
:1006500000F052F86510012802D1284600F040F859
:10066000284600F049F8012802D1204600F038F869
:100670004FF40044204600F03FF8012804D1204602
:10068000BDE8704000F02CB870BD70B54FF48034F8
:10069000204600F031F8012802D1204600F020F871
:1006A0004FF48024204600F027F86510012802D17D
:1006B000284600F015F8284600F01EF8012802D15F
:1006C000204600F00DF84FF40024204600F014F806
:1006D000012804D12046BDE8704000F001B870BD8B
:1006E000C10002D50249086070470249486070475E
:1006F000040402400000024002460020D10001D55F
:10070000034900E003490968114200D00120704705
:1007100000040240000002407047000010B50420B1
:1007200000F0D0F9064807490068B0FBF1F106482F
:10073000816081684FF47A725143C16010BD00003E
:100740001400002040420F0028000020F0B5CC78B3
:10075000002204F00F03E40601D58C7823430C78C3
:100760004FF00F0C14F0FF0F4FF0010E1BD0056877
:100770000E880EFA02F42640A64210D196000CFA1A
:1007800006F725EA070703FA06F5CE783D43282E3B
:1007900002D0482E02D002E0446100E00461521C05
:1007A000082AE5D305600A88FF2A1CD9446800227C
:1007B00002F108060EFA06F50E882E40AE420ED162
:1007C00096000CFA06F7BC4303FA06F7CE783C43D2
:1007D000282E00D14561CE78482E00D10561521CEB
:1007E000082AE5D34460F0BD0246002092680A4220
:1007F00000D0012070474FF6FF7101800221817007
:100800000421C1707047FEE710B5012144F20400D5
:1008100000F05AF80B484FF4E1310B4C0160002115
:100820008180C180018181810C2141810146204666
:1008300000F074FA00F09EF92046BDE81040012156
:1008400000F024BAB001002000380140FEE77047F4
:1008500030B50F23C27801780125F2B1144A12682D
:1008600001F1E02102F4E062C2F5E062120AC2F195
:100870000404D3404278A24084781C4014432201EF
:1008800081F80024007800F01F018D4040098000AD
:1008900000F1E020C0F8005130BD01F01F0085409C
:1008A0004809800000F1E020C0F8805130BD000010
:1008B0000CED00E00249084302490860704700005F
:1008C0000000FA050CED00E0044A0029916901D00E
:1008D000014300E081439161704700000010024035
:1008E00070B53D4B59683D4C11F00C0104D0042902
:1008F0000AD0082908D109E0196B890104D5596D7E
:10090000890501D5364932E0046031E0596801F4C7
:1009100080355968334A114011F0C04F05D1C1F3F9
:1009200083420F2A01D0022200E00122302606EA8B
:100930005166C1F383410E43911965B15A68920320
:100940000BD55A6D032505EA1232921CB4FBF2F264
:100950004A43026004E0244A00E0204A5143016017
:100960005968002904DB214902688A4200D90160E4
:1009700059685A68C1F302111D4C120601D5615C19
:1009800000E000210268CA40426059685D68C1F316
:1009900001216D0501D5615C00E0002122FA01F121
:1009A000816059685D68C1F3C121AD0401D5615C06
:1009B00000E00021CA40C26059685B68C1F3813120
:1009C000DB0001D541F00401094B0833595CB2FB4F
:1009D000F1F1016170BD00000010024000127A00C8
:1009E000006CDC0200003C6000093D0000A24A04EB
:1009F000C029000805490128486D03D020F03000C7
:100A00004865704740F03000FAE7000000100240EF
:100A10001CB50021284C00910191206840F48030E1
:100A200020604FF44052206800F40030019000989C
:100A3000401C0090019810B900989042F3D12068B2
:100A4000800337D50120019060686060606820F401
:100A500060506060606840F400506060606820F43E
:100A6000E0606060606840F48060606060681349C6
:100A7000084060606068124908436060206840F088
:100A80008070206020688001FCD50120FFF7B2FF54
:100A9000606820F003006060606840F00200606001
:100AA0006068C0F381000228FAD1BDE81C40002034
:100AB000FFF7A0BF01911CBD00100240FFFFC01F47
:100AC000000035A04FF0E0210428086903D020F091
:100AD00004000861704740F00400FAE710B55020A8
:100AE00080F31188BFF34F8FBFF36F8F01F0DAFDF2
:100AF00018B104494FF080500860002080F311883D
:100B000010BD000004ED00E0144810B5016841F488
:100B1000700101601248016841F001010160416803
:100B2000104A1140416001680F4A1140016001689C
:100B300021F48021016041680C4A11404160016B41
:100B40000B4A114001634FF41F018160FFF760FF02
:100B500002494FF000608039086010BD88ED00E068
:100B6000001002400C00FFE8FFFFF6FEFFFF001739
:100B700000FFFEFE38B501218803FFF7A5FE4FF404
:100B80000070ADF8000002208DF802001820104C13
:100B90008DF8030069462046FFF7D8FD2115ADF812
:100BA000001004218DF8031069462046FFF7CEFDA2
:100BB00000F054F8074C012240F22551204600F085
:100BC00095F8012240F22441204600F08FF838BD0C
:100BD000000801400038014070B51D4C1D4E40F228
:100BE0002551E078401CE070304600F060F81A4D66
:100BF00078B12021304600F046F8304600F0ECF89D
:100C000061786854491CC8B26070622801D96220BA
:100C1000607040F22441304600F049F860B130463F
:100C200000F0DAF86178294401F8010C00206070C6
:100C3000A178491CA170207040F22661304600F076
:100C400036F8002802D02079401C207170BD0000C9
:100C500000000020003801404C01002008B54FF48E
:100C6000A060FFF727FE25208DF8000002208DF8F8
:100C7000010000208DF8020001208DF80300684675
:100C8000FFF7E6FD08BDC94301807047002981894F
:100C900002D041F4005101E021F4005181817047FC
:100CA0000246002012880A4200D00120704770B529
:100CB00001F01F0501260024C1F3421306FA05F2D4
:100CC000012B0FD0022B0FD0838A4FEA112100880D
:100CD000134206FA01F600EA060001D000B1012431
:100CE000204670BD8389F0E7038AEEE710B5C1F3B3
:100CF000421301F01F040121A140012B07D0022B58
:100D000007D01430002A026805D00A4304E00C30F2
:100D1000F8E71030F6E78A43026010BD70B504466C
:100D2000008A86B00D464CF6FF710840E988014301
:100D30002182A0894EF6F3110840A9882A8911431F
:100D40006A8902431143A181A18A4FF6FF40014005
:100D5000A8890843A0826846FFF7C2FD1A4884426A
:100D600008D01A498C4205D019498C4202D0194941
:100D70008C4201D1039800E002982A684FF47A75FA
:100D8000A0FB05100E0946EA007601090023304653
:100D9000FFF76CFAB0FBF5F1B0FBF5F205FB1200C2
:100DA0000001B0FBF5F205FB1202B0FBF5F0B2F565
:100DB000FA7F04D3401C102801D30020491C40EACC
:100DC0000110208106B070BD003801400060014074
:100DD00000640140006801408088C0F3080070474B
:100DE000C1F3080181807047FEE700000FB4054B96
:100DF00010B503A9044A029800F018F810BC5DF879
:100E000014FB0000ED1000087000002002E008C88C
:100E1000121F08C1002AFAD170477047002001E074
:100E200001C1121F002AFBD1704700002DE9FF4FBE
:100E30008DB09B460F460446002606E025280BD0C1
:100E40005A460F999047641C761C20780028F5D1EB
:100E500011B03046BDE8F08F0025A8460122984920
:100E600000E0054314F8013F203B02FA03F008427A
:100E7000F7D120782E2817D114F8010F45F004057A
:100E80002A280ED06FF02F022078A0F13001092916
:100E90000AD808EB880102EB410100EB0108641C51
:100EA000F2E757F8048B641C20786C280DD004DC22
:100EB0004C2812D06A2811D104E074280DD07A2869
:100EC0000CD10AE045F4001507E0617845F480157F
:100ED000814202D1641C05F58015641C2278692AC0
:100EE00045D008DC002AB3D0582A69D0632A10D034
:100EF000642A08D13BE0702A67D0732A13D0752A80
:100F00005CD0782A5CD010465A460F999047761CE0
:100F1000D3E017F8040B8DF8000000208DF80100D5
:100F2000E946012003E057F8049B4FF0FF306907C2
:100F30004FF0000501D40AE06D1C45450DDA8542ED
:100F4000FADB19F805100029F6D106E06D1C854280
:100F5000FCDB19F805100029F8D12E4404E019F83B
:100F6000010B5A460F9990476D1EF8D2A5E00A2052
:100F70000021CDE90801C5F3025002280DD001CFB0
:100F8000C117031E71F100030DDA4FF0000CD0EB16
:100F90000C006CEB01012D2308E0FF1D27F0070773
:100FA000F7E80201EDE72B0504D52B238DF8283057
:100FB00001233BE0EB0739D02023F7E70A2000E0CC
:100FC00010200021CDE9080107E01020002145F0A4
:100FD0000405CDE908014FF00808C5F302500228C6
:100FE0000FD001CF00214FF0000A2B071FD5702A28
:100FF0000DD0DDE908C38CF0100C5CEA030C0CD0BA
:1010000015E0FF1D27F00707F7E80201EBE7402294
:101010008DF828204FF0010A0BE050EA010306D0BA
:1010200030238DF828308DF8292002239A46582A3B
:1010300004D024A20DF120090B9209E026A2F9E7C1
:10104000DDE90823FFF712F90B9B9B5C09F8013DD2
:1010500050EA0102F4D1ADEB090020300890680796
:1010600001D44FF001080899884502DDA8EB010082
:1010700000E000208046002506E00AA85A46405DB0
:101080000F9990476D1C761C5545F6DB04E0302027
:101090005A460F999047761CB8F10001A8F1010853
:1010A000F5DC05E019F8010B5A460F999047761CBC
:1010B0000899481E08900029F4DC641CC5E600006D
:1010C000092801003031323334353637383961621E
:1010D00063646566000000003031323334353637E2
:1010E00038394142434445460000000070B5074D81
:1010F000044681B22846FFF773FE40212846FFF7D9
:10110000CFFD0028F9D0204670BD00000038014016
:10111000FFF79EF9FFF778FB0748FFF767FE0749DF
:1011200007A0FFF763FE054905A0091DFFF75EFE56
:1011300000F010FDFEE70000D02900080038014053
:101140002F2A2A2A2A307825702A2A2A2A2F0A00AA
:101150002DE9F041134E0F460446F5683068001D36
:1011600000F042FD601C07D137B13168BDE8F041A5
:101170000D48091D00F070BD30682C44AC4244603D
:10118000316805D2B06BBDE8F041091D00F04CBDDF
:10119000706B091D00F048FDB06A844200D2B46251
:1011A000BDE8F08174000020E00400202DE9F0414A
:1011B000054600F05DFD2D4EB068401CB060306803
:1011C0002B4F10B1706930B32BE03560B068012847
:1011D00027D1002404EB840007EB800000F016FD0B
:1011E000641C202CF6D3234800F010FD2148143055
:1011F00000F00CFD1F48283000F008FD1D483C3071
:1012000000F004FD1B48503000F000FD19487063E9
:101210001430B06305E03068E96AC06A884200D8DB
:101220003560706A401C70626865E86A316988429E
:1012300000D9306100EB800007EB8000291D00F031
:101240000BFD00F035FD706900280CD03068E96AAC
:10125000C06A884207D208494FF080500860BFF347
:101260004F8FBFF36F8FBDE8F08100007400002046
:10127000100200209004002004ED00E010B500F002
:10128000F7FC0E4C2068A0B90D4800F0BFFC0C48DC
:10129000143000F0BBFC0A48E060143020610022EA
:1012A0000C210A2000F040FF206010B105A100F0E1
:1012B0007BFDBDE8104000F0FBBC0000B00000204A
:1012C000F4040020546D72510000000070B5124EFD
:1012D000124D1CE000F07CFE306820B1002401F0CB
:1012E000BBFAA4B901E00124F9E700F0C1FCF06801
:1012F000C468201D00F078FCA868401EA8606868DB
:10130000401E686000F0D4FC204600F052F8686887
:101310000028DFD170BD0000CC0400207400002044
:1013200030B4026C0B46002A0BD0C1681144C16076
:101330004468A14201D30168C16030BC1846FEF781
:10134000C6BF30BC70472DE9F041856B1746044697
:101350000026026C82B1C7B1E068FEF7B8FFE16811
:10136000206C091AE1602268914202D26168081A71
:10137000E060022F16D017E02068A8B9606801F07D
:10138000F5F90646002060600EE0A068FEF79FFFBA
:10139000216CA0680844A0606168884204D320687A
:1013A000A06001E005B16D1E6D1CA5633046BDE86F
:1013B000F08110B50446006B00F08EFC2046BDE8BD
:1013C000104000F089BC000010484FF496314207ED
:1013D00006D0C01D0D4920F00700411AC1F5963115
:1013E0000B4A00230144C2E900030839103A21F0F6
:1013F000070111604B600B600B1AC0E9001393608A
:101400004FF000405360D060704700001C05002082
:10141000D4000020074E4FF08054074DFFF756FFD1
:1014200030680128FAD92C60BFF34F8FBFF36F8F5C
:10143000F4E700001002002004ED00E02DE9F04781
:101440000E46DDE909841746824691009946089DBB
:10145000A522206BFEF74DFF6FF00301206B01EB1F
:101460008701084420F00707780707D0502080F351
:101470001188BFF34F8FBFF36F8FFEE72218315CE7
:1014800082F83410315C11B1401C2028F6D30026BC
:1014900084F85360202D00D31F25E562C4E9175658
:1014A000201D00F0BEFB04F1180000F0BAFB24611F
:1014B000C5F120006462A061666684F868604A46EF
:1014C0005146384600F07AFA2060B8F1000F01D09A
:1014D000C8F80040BDE8F08730B5114900E011467A
:1014E0000A688242FBD34B685C18844203D140688F
:1014F00018444860084643681C18944209D1084CB7
:10150000103C2468A24209D052681A4442600A681A
:1015100012680260814200D0086030BD0460F9E7C3
:10152000D400002070B5002441600B4D0061914251
:1015300006D8D11A8269914206D2011D286907E0B6
:101540009A4203D2994201D3012403E0011DE868C5
:1015500000F06AFB204670BDB000002010B50446C4
:1015600000F086FBA06B20B1002400F0A1FB204618
:1015700010BD0124F9E773B500260098846C5CB1B6
:10158000A26BE06B82420FD3502080F31188BFF32F
:101590004F8FBFF36F8FFEE7502080F31188BFF3AA
:1015A0004F8FBFF36F8FFEE7A26B82420CD294F98C
:1015B00045500A4669462046FFF7C5FE0646681CA8
:1015C00004D06D1C84F8455030467CBD606A00280C
:1015D000FAD004F1240001F007F90028F4D0012624
:1015E000F2E7000030B585B02B4D4BE001980028A4
:1015F00048DB039C606910B1201D00F0F5FA04A8D7
:1016000000F0B6F8024601980A283BD2DFE800F065
:101610000505053A263705053A260298A1690346CD
:1016200001442046FFF77EFF00B3616A20468847E9
:10163000E069012826D1002000900298A1690023CA
:1016400042181946204601F08DF978B9502080F3F0
:101650001188BFF34F8FBFF36F8FFEE70298A06131
:1016600028B1811813462046FFF75CFF0AE050209E
:1016700080F31188BFF34F8FBFF36F8FFEE72046D3
:1016800000F02AFB00231A4601A9286800F078FD23
:101690000028ABD105B030BDB00000202DE9FC41E1
:1016A0000E46054600F094FC01A800F061F80446DF
:1016B000019818B101F0D0F8BDE8FC81224FAEB11D
:1016C00038690068A8B30026291B3246386800F044
:1016D0007DFB01F0C1F80028EED11C494FF080508D
:1016E0000860BFF34F8FBFF36F8FE5E7A542EBD8DC
:1016F00001F0B2F8F8682646C068C468201D00F002
:1017000073FAE069012810D1A0692B4641193246CD
:101710002046FFF707FF40B1002003460146009036
:101720002A46204601F01EF920B1616A204688470A
:10173000C2E707E0502080F31188BFF34F8FBFF35B
:101740006F8FFEE70126BFE7B000002004ED00E048
:101750000648416B096829B1416BC968C968496885
:10176000816270474FF0FF31FAE7000074000020FB
:1017700070B5054600F090FF064E0446B0688442FE
:1017800003D200F009F8012000E000202860204684
:10179000B46070BDB0000020F8B5194E1FE0C068FD
:1017A000C4680568201D00F01FFA616A204688475A
:1017B000E069012813D1A0692844A84206D9246110
:1017C0006060211DF06800F02FFA08E00020034659
:1017D000014600902A46204601F0C4F838B1F0686E
:1017E00001680029DBD13169C6E90310F8BD50203A
:1017F00080F31188BFF34F8FBFF36F8FFEE70000B8
:10180000B000002008484068401C4FF0500080F3B2
:10181000118804D0BFF34F8FBFF36F8FFEE7BFF384
:101820004F8FBFF36F8FFEE7DC000020084CE068AD
:10183000016839B1002139B10020FFF72FFFFFF710
:10184000D1FEF4E70121F6E7C0680068F5E7000083
:10185000B00000202DE9F041044600F009FA94F9A7
:10186000455004F1240610E0A06C20B10021204670
:10187000FFF781FE04E0606A48B1304600F0B4FF33
:1018800008B100F0EBFA6D1E6DB2002DECDC4FF0EC
:10189000FF3684F8456000F00BFA00F0E9F994F99E
:1018A000445004F1100709E0206948B1384600F0BF
:1018B0009BFF08B100F0D2FA6D1E6DB2002DF3DC73
:1018C00084F84460BDE8F04100F0F2B92DE9F04140
:1018D0000546002600F07CFB314F386808B9FFF759
:1018E00073FDF86805424BD1C5B3083568070ED0C3
:1018F00005F00700C0F108000544680707D0502034
:1019000080F31188BFF34F8FBFF36F8FFEE72DB3C6
:101910007868854234D8224910310846046801E0CD
:10192000214604466068A84202D220680028F7D108
:101930003868844224D00E682068086060680836E1
:10194000411B10290FD96019420708D0502080F39D
:101950001188BFF34F8FBFF36F8FFEE710E0416038
:101960006560FFF7B9FD61687868401A7860BA6809
:10197000904200D2B860F86801430020C4E9000139
:1019800000F06AFF700707D0502080F31188BFF382
:101990004F8FBFF36F8FFEE73046BDE8F081000048
:1019A000C40000200449086818B10868026E521C7F
:1019B00002660868704700007400002010B5031F1D
:1019C0004FF080741C601B1F21F001011960191F6A
:1019D000044B0B6014390A60091F6FF0020244388F
:1019E0000A6010BD0518000886B014216846FEF78D
:1019F00087FC254C0320FEF78BFD0A2000F008FA37
:101A00000220FEF785FD642000F002FAA06800289D
:101A1000F0D000230A22694600F0B2FB0128E9D188
:101A2000BDF8001019A0FFF7E1F9BDF802101CA0E5
:101A3000FFF7DCF9BDF804101EA0FFF7D7F9BDF8D9
:101A4000061021A0FFF7D2F9BDF8081023A0FFF778
:101A5000CDF9BDF80A1026A0FFF7C8F9BDF80C10A3
:101A600028A0FFF7C3F9BDF80E102BA0FFF7BEF9B1
:101A7000BDF810102DA0FFF7B9F9BDF8121030A075
:101A8000FFF7B4F9B6E7000008000020517565754E
:101A9000655F627566665B305D203D2025640A00E7
:101AA00051756575655F627566665B315D203D20C9
:101AB00025640A0051756575655F627566665B32FF
:101AC0005D203D2025640A0051756575655F62756E
:101AD00066665B335D203D2025640A00517565759F
:101AE000655F627566665B345D203D2025640A0093
:101AF00051756575655F627566665B355D203D2075
:101B000025640A0051756575655F627566665B36AA
:101B10005D203D2025640A0051756575655F62751D
:101B200066665B375D203D2025640A00517565754A
:101B3000655F627566665B385D203D2025640A003E
:101B400051756575655F627566665B395D203D2020
:101B500025640A001CB500F08BF800220621042041
:101B600000F0E2FA0F49886010B90FA0FFF73EF9C4
:101B70000C491E20CDE900010023322212A1154894
:101B800000F050FD07490A20091DCDE9000100239E
:101B9000322211A1134800F045FDBDE81C4000F0C1
:101BA000DFB90000080000202043726174653A200C
:101BB0004661696C656420746F20427574746F6E41
:101BC0005F51756575650A0073746172745F746145
:101BD000736B0000E9190008427574746F6E5F74CE
:101BE00061736B0039050008D0E9013201699A6020
:101BF000D0E901235A604A68824201D182684A6072
:101C0000002202610868401E0860704700F1080168
:101C10004FF0FF32C0E90112C16001610021016093
:101C2000704700210161704730B50C68621C02D01A
:101C300000F1080202E0026904E01A4653681D68D8
:101C4000A542FAD953684B6099608A605160086177
:101C50000168491C016030BD42684A6093688B602E
:101C600093685960916008610168491C0160704780
:101C7000502080F31188BFF34F8FBFF36F8F0A4955
:101C80004868401C486001280CD10848006810F0E2
:101C9000FF0F07D0502080F31188BFF34F8FBFF3A1
:101CA0006F8FFEE770470000DC00002004ED00E0CD
:101CB0000849486828B1401E486001D180F3118866
:101CC0007047502080F31188BFF34F8FBFF36F8FA1
:101CD000FEE70000DC00002070B5002827D0144D7E
:101CE000A0F108046068E968084207D1502080F339
:101CF0001188BFF34F8FBFF36F8FFEE722683AB1B1
:101D0000502080F31188BFF34F8FBFF36F8FFEE732
:101D10008843606000F05CF9606869680844686046
:101D20002046FFF7D9FBBDE8704000F095BD70BDBF
:101D3000C400002006484FF47A710068B0FBF1F14E
:101D40004FF0E020491E416107210161704700000A
:101D50001400002010B5FEF773FA114910280ED3B5
:101D600000F1E02090F8F0030A78904207D250206A
:101D700080F31188BFF34F8FBFF36F8FFEE70948E1
:101D80000068896800F4E060884207D9502080F339
:101D90001188BFF34F8FBFF36F8FFEE710BD0000B8
:101DA000DC0000200CED00E010B5074B002253F8DA
:101DB00032401CB1521C082AF9D310BD43F832102E
:101DC00003EBC201486010BDD001002070B515467C
:101DD0000E460446FFF74CFF94F944100020491CBE
:101DE00001D184F8440094F94510491C01D184F8CC
:101DF0004500FFF75DFFA06B28B92A46314604F184
:101E0000240000F049F82046BDE87040FFF722BDED
:101E100010B5020014D00F48006B38B1502080F389
:101E20001188BFF34F8FBFF36F8FFEE700F0D0F83C
:101E300000211046FFF78CF900F00EFD002807D1B5
:101E400005494FF080500860BFF34F8FBFF36F8F8D
:101E500010BD00007400002004ED00E001490120E5
:101E6000C86170477400002010B50C4650B1094994
:101E700009681831FFF7D8FE2046BDE8104001215F
:101E8000FFF766B9502080F31188BFF34F8FBFF37F
:101E90006F8FFEE77400002070B514460D4668B1E0
:101EA0000A4909681831FFF7D7FE0CB14FF0FF352A
:101EB00021462846BDE87040FFF74AB9502080F31C
:101EC0001188BFF34F8FBFF36F8FFEE774000020C0
:101ED00070B504002CD0174DE06A2968C96A8842A1
:101EE00026D2A069002804DB2868C06AC0F120005F
:101EF000A061E06A104E00EB8000616906EB800093
:101F0000814212D1201DFFF76FFE2868C06AE0628F
:101F10002969884200D9286100EB800006EB800027
:101F2000211DBDE87040FFF797BE2868C06AE062D7
:101F300070BD0000740000201002002028B1074985
:101F40000A6A0260C96841607047502080F31188B6
:101F5000BFF34F8FBFF36F8FFEE7000074000020C8
:101F60001CB517480024CDE900402346822215A164
:101F7000164800F057FB012803D100F0CDFC0128E2
:101F800009D0401C1AD1502080F31188BFF34F8F25
:101F9000BFF36F8FFEE7502080F31188BFF34F8FA0
:101FA000BFF36F8F06484FF0FF312C38816201215B
:101FB0004161C460BDE81C4000F044B81CBD000095
:101FC000A000002049444C45000000001514000802
:101FD0000248016B491C0163704700007400002037
:101FE000164B10B5186B10B10120D86110BD002040
:101FF000D8611869124901E0B8B1401E00EB8002B7
:1020000051F82220002AF7D000EB800201EB820178
:1020100001F108044A6852684A60A24201D152683C
:102020004A60D1681960186110BD502080F3118892
:10203000BFF34F8FBFF36F8FFEE7000074000020E7
:10204000100200201CB533480168334A914207D181
:10205000502080F31188BFF34F8FBFF36F8FFEE7DF
:1020600000682D49491E884207D1502080F311880D
:10207000BFF34F8FBFF36F8FFEE7284908780190B9
:10208000FF20087008788DF800009DF800009DF88A
:10209000002000F0F000904207D0502080F311881B
:1020A000BFF34F8FBFF36F8FFEE79DF800001C4A10
:1020B00000F0500010700720906007E09068401E0C
:1020C00090609DF8000040008DF800009DF8000031
:1020D0000006F3D4107A000200F4E06090600198EA
:1020E00008700C482030016841F4700101600168FB
:1020F00041F070410160FFF71DFE00205060FEF7C7
:1021000067F80848016841F040410160FEF750F867
:1021100000201CBD00ED00E071C20F4100E400E0B2
:10212000DC00002034EF00E02DE9F04117460E46B8
:10213000050018D0FEB105FB06F05430FFF7C6FBD2
:1021400004000ED004F15400BEB12060C4E90F5663
:102150002046012100F0CCF884F850700021204680
:10216000A164BDE8F081502080F31188BFF34F8F48
:10217000BFF36F8FFEE70020DFE72460E6E7000093
:102180002DE9FF4F83B09B468A4604004FF00006BE
:1021900003D0BAF1000F08D011E0502080F311886D
:1021A000BFF34F8FBFF36F8FFEE7206C38B1502025
:1021B00080F31188BFF34F8FBFF36F8FFEE700F0FE
:1021C0005DFADFF828814FF000094FF0805748B9D9
:1021D000059838B1502080F31188BFF34F8FBFF3BB
:1021E0006F8FFEE7FFF744FDA56B45B351462046D0
:1021F000E668FFF795F8BBF1000F13D0E660606A60
:1022000050B104F1240000F0EFFA28B1C8F80070D2
:10221000BFF34F8FBFF36F8FFFF74AFD012007B069
:10222000BDE8F08F6D1EA563206810B9FFF7BAFBFB
:10223000606020690028EFD004F11000E3E7059802
:1022400008B11EB106E0FFF733FD27E06846FFF74F
:1022500075FE0126FFF72CFDFFF7BAFEFFF708FD1C
:1022600094F94400401C01D184F8449094F945004D
:10227000401C01D184F84590FFF71AFD05A9684676
:1022800000F09AF9002820460AD0FFF7E3FA00F0A0
:10229000E3FA2046FFF762F90028A3D00020BEE74A
:1022A000FFF75CF9D8B1206830B9FFF7E1FC60684E
:1022B000FFF70EFEFFF7FCFC04F124000599FFF781
:1022C000D3FD2046FFF7C6FA00F0C6FA002889D1F0
:1022D000C8F80070BFF34F8FBFF36F8F82E72046BF
:1022E000FFF7B8FA00F0B8FA7CE7000004ED00E070
:1022F00070B50D46040025D0FFF7BAFCD4E90F20D5
:10230000216802FB001161600021A1632168A160C6
:102310000A46D4E90F01401E00FB0121E16021467D
:102320004FF0FF3001F8440F487004F110008DB1F8
:10233000FFF76CFC04F12400FFF768FCFFF7B8FC22
:10234000012070BD502080F31188BFF34F8FBFF381
:102350006F8FFEE721690029F0D000F045FA0028D0
:10236000ECD004494FF080500860BFF34F8FBFF3AB
:102370006F8FE3E704ED00E02DE9FF4F83B099464E
:102380008B4604004FF0000603D0BBF1000F08D0CD
:1023900011E0502080F31188BFF34F8FBFF36F8F90
:1023A000FEE7206C38B1502080F31188BFF34F8FC7
:1023B000BFF36F8FFEE7B9F1020F0AD1E06B01287E
:1023C00007D0502080F31188BFF34F8FBFF36F8F7A
:1023D000FEE700F053F9DFF810814FF0000A4FF0EC
:1023E000805748B9059838B1502080F31188BFF361
:1023F0004F8FBFF36F8FFEE7FFF73AFCA06BE16BE7
:10240000884206D3B9F1020F03D0059800B316B382
:1024100025E04A4659462046FEF795FFA16C21B1BA
:1024200049462046FFF7A7F805E0616A19B104F1B3
:10243000240000F0D9F928B1C8F80070BFF34F8F1D
:10244000BFF36F8FFFF734FC012007B0BDE8F08FBA
:10245000FFF72EFC21E06846FFF770FD0126FFF72D
:1024600027FCFFF7B5FDFFF703FC94F94400401C7F
:1024700001D184F844A094F94500401C01D184F8AE
:1024800045A0FFF715FC05A9684600F095F830B1A6
:102490002046FFF7DFF900F0DFF90020D5E7FFF76E
:1024A000E7FBA06BE16B884201D1012500E000252C
:1024B000FFF7FEFB95B104F110000599FFF7D4FC7E
:1024C0002046FFF7C7F900F0C7F9002894D1C8F8F3
:1024D0000070BFF34F8FBFF36F8F8DE72046FFF77C
:1024E000B9F900F0B9F987E704ED00E02DE9F0470C
:1024F000984615468946040003D0B9F1000F08D06C
:1025000011E0502080F31188BFF34F8FBFF36F8F1E
:10251000FEE7206C38B1502080F31188BFF34F8F55
:10252000BFF36F8FFEE7B8F1020F0AD1E06B01280D
:1025300007D0502080F31188BFF34F8FBFF36F8F08
:10254000FEE7FFF707FC5020EFF3118780F31188B7
:10255000BFF34F8FBFF36F8FA06BE16B884207D340
:10256000B8F1020F04D0002087F31188BDE8F0878E
:1025700094F94560424649462046FEF7E4FE701C49
:1025800004D0761C84F845600120EDE7A06C01269C
:1025900020B141462046FEF7EEFF06E0606A0028C3
:1025A000F2D004F1240000F01FF90028ECD0002D37
:1025B000EAD02E60E8E7000070B50D46040019D09F
:1025C00005B3FFF755FB164AD06829684B1C0FD09E
:1025D0002368126A934202D0626882421AD9626802
:1025E000801A884216D2081A28602046FFF7A6FCF7
:1025F000002410E0502080F31188BFF34F8FBFF309
:102600006F8FFEE7502080F31188BFF34F8FBFF329
:102610006F8FFEE70124FFF74BFB204670BD0000E3
:10262000740000202DE9FF5F8346DDE90E8799469F
:1026300016468A469000FFF749F905001AD06C202B
:10264000FFF744F9040012D025630021CDE90241CF
:10265000CDE900874B46324651465846FEF7EEFE1E
:102660002046FEF7A3FD012004B0BDE8F09F2846F8
:10267000FFF732FB4FF0FF30F6E7000005484169F5
:1026800019B1006B18B1002070470120704702207B
:1026900070470000740000200148C06870470000C7
:1026A000740000202DE9F0412E4F0026386B40B118
:1026B000B869401CB861F86900B101263046BDE830
:1026C000F081FD686D1CFD6013D1786B006838B136
:1026D000502080F31188BFF34F8FBFF36F8FFEE759
:1026E000786BB96B7963B863386A401C3862FFF75E
:1026F0002FF8B86ADFF87080854209D3786B0068DC
:1027000080B1786BC068C468606885420DD2B862D9
:102710003868C06A00EB800158F821000128CAD946
:102720000126C8E74FF0FF30F1E7201DFFF75CFA04
:10273000A06A18B104F11800FFF756FAE06A396987
:10274000884200D9386100EB800108EB8100211D2F
:10275000FFF782FAE06A3968C96A8842CED3012657
:10276000CCE70000740000201002002070B50400C7
:102770004FF000002BD01A4D29688C4207D0502012
:1027800080F31188BFF34F8FBFF36F8FFEE7216E89
:10279000F1B1491E2166E36DE26A9A4217D0002921
:1027A00015D1201DFFF720FAE06DE062C0F1200096
:1027B000A061E06A2969884200D92861094900EBD3
:1027C000800001EB8000211DFFF746FA012070BD5B
:1027D000502080F31188BFF34F8FBFF36F8FFEE758
:1027E000740000201002002070B5C068C46854B1A5
:1027F00004F118000646FFF7F7F9144D286B50B1A5
:102800003146134815E0502080F31188BFF34F8FF5
:10281000BFF36F8FFEE7201DFFF7E6F9E06A296935
:10282000884200D928610B4900EB800001EB800051
:10283000211DFFF711FAE06A2968C96A884202D9A6
:102840000120E86170BD002070BD00007400002010
:10285000B8040020100200202DE9F0472B4D002481
:102860002746286B38B1FFF703FA286B401E286310
:10287000286B40B145E0502080F31188BFF34F8FA3
:10288000BFF36F8FFEE7A86821490126C8B3A1F501
:102890002A798846D8F80010E1B1D8F80C00C4684D
:1028A00004F11800FFF7A0F9201DFFF79DF9E06A79
:1028B0002969884200D9286100EB800109EB810079
:1028C000211DFFF7C9F9E06A2968C96A8842E1D386
:1028D000EE61DFE70CB1FEF73BFFAC693CB1FFF7FF
:1028E000E1FE00B1EE61641EF9D10020A861E86943
:1028F00038B10849012738070860BFF34F8FBFF38D
:102900006F8FFFF7D5F93846BDE8F08774000020D7
:10291000B804002004ED00E01CB5FEF7AFFC0D4844
:10292000006868B10B490220091DCDE900010023B0
:102930004FF4827208A10A48FFF774FE002807D1FD
:10294000502080F31188BFF34F8FBFF36F8FFEE7E6
:102950001CBD0000B0000020546D7220537663004F
:102960002D180008FEB51F460300089E4FF000001A
:1029700013D0124D2C68002C0ED08DE80E000629C5
:1029800015DAFFF77BFE02284FF000030DD000227E
:1029900069462868FFF7F0FCFEBD502080F31188DF
:1029A000BFF34F8FBFF36F8FFEE73246F0E7002390
:1029B0003A4669462046FFF799FDFEBDB00000206B
:1029C000010203040607080902040608020C0810A5
:1029D0005553415254205072696E74662045786197
:1029E0006D706C653A2072657461726765742074ED
:1029F00068652043206C6962726172792070726927
:102A00006E74662066756E6374696F6E20746F20D5
:102A10007468652055534152540A0D003C2A000841
:102A200000000020E80000000C0E0008242B000825
:102A3000E8000020383401001C0E000801000000EE
:102A40000000000000000000000000000000000086
:102A5000001C4E0E000000000000000001020304F4
:102A60000607080901000100002000000000000026
:102A7000000000000000002000400080000801402D
:102A800000100140040000001000000000000000E1
:102A90000014014000140140001401400000000037
:102AA00020000000200000002000000000000000C6
:102AB0000000000000000000000000000000000016
:102AC0000000000000000000000000000000000006
:102AD00000000000000000000000000000000000F6
:102AE00000000000000000000000000000000000E6
:102AF00000000000000000000000000000000000D6
:102B000000000000000000000000000000000000C5
:102B1000000000000000000000000000AAAAAAAA0D
:042B200000000000B1
:040000050800017D71
:00000001FF
